{
  "_format": "hh-sol-artifact-1",
  "contractName": "StudentInformationSystem",
  "sourceName": "contracts/StudentInformationSystem.sol",
  "abi": [
    {
      "inputs": [],
      "stateMutability": "nonpayable",
      "type": "constructor"
    },
    {
      "anonymous": false,
      "inputs": [
        {
          "indexed": true,
          "internalType": "uint256",
          "name": "usn",
          "type": "uint256"
        },
        {
          "indexed": false,
          "internalType": "string",
          "name": "course",
          "type": "string"
        },
        {
          "indexed": false,
          "internalType": "uint256",
          "name": "attendance",
          "type": "uint256"
        }
      ],
      "name": "AttendanceUpdated",
      "type": "event"
    },
    {
      "anonymous": false,
      "inputs": [
        {
          "indexed": true,
          "internalType": "uint256",
          "name": "usn",
          "type": "uint256"
        },
        {
          "indexed": false,
          "internalType": "string",
          "name": "course",
          "type": "string"
        },
        {
          "indexed": false,
          "internalType": "uint256",
          "name": "grade",
          "type": "uint256"
        }
      ],
      "name": "GradeUpdated",
      "type": "event"
    },
    {
      "anonymous": false,
      "inputs": [
        {
          "indexed": true,
          "internalType": "uint256",
          "name": "usn",
          "type": "uint256"
        },
        {
          "indexed": false,
          "internalType": "string",
          "name": "name",
          "type": "string"
        }
      ],
      "name": "StudentAdded",
      "type": "event"
    },
    {
      "inputs": [
        {
          "internalType": "uint256",
          "name": "_usn",
          "type": "uint256"
        },
        {
          "internalType": "string",
          "name": "_name",
          "type": "string"
        },
        {
          "internalType": "string",
          "name": "_minor",
          "type": "string"
        }
      ],
      "name": "addStudent",
      "outputs": [],
      "stateMutability": "payable",
      "type": "function"
    },
    {
      "inputs": [],
      "name": "admissionFee",
      "outputs": [
        {
          "internalType": "uint256",
          "name": "",
          "type": "uint256"
        }
      ],
      "stateMutability": "view",
      "type": "function"
    },
    {
      "inputs": [
        {
          "internalType": "uint256",
          "name": "_usn",
          "type": "uint256"
        },
        {
          "internalType": "string",
          "name": "_course",
          "type": "string"
        }
      ],
      "name": "getStudentAttendance",
      "outputs": [
        {
          "internalType": "uint256",
          "name": "",
          "type": "uint256"
        }
      ],
      "stateMutability": "view",
      "type": "function"
    },
    {
      "inputs": [
        {
          "internalType": "uint256",
          "name": "_usn",
          "type": "uint256"
        },
        {
          "internalType": "string",
          "name": "_course",
          "type": "string"
        }
      ],
      "name": "getStudentGrade",
      "outputs": [
        {
          "internalType": "uint256",
          "name": "",
          "type": "uint256"
        }
      ],
      "stateMutability": "view",
      "type": "function"
    },
    {
      "inputs": [
        {
          "internalType": "uint256",
          "name": "_usn",
          "type": "uint256"
        }
      ],
      "name": "getStudentInfo",
      "outputs": [
        {
          "components": [
            {
              "internalType": "uint256",
              "name": "usn",
              "type": "uint256"
            },
            {
              "internalType": "string",
              "name": "name",
              "type": "string"
            },
            {
              "internalType": "string",
              "name": "minor",
              "type": "string"
            },
            {
              "internalType": "string[]",
              "name": "courses",
              "type": "string[]"
            }
          ],
          "internalType": "struct StudentInformationSystem.Student",
          "name": "",
          "type": "tuple"
        }
      ],
      "stateMutability": "view",
      "type": "function"
    },
    {
      "inputs": [],
      "name": "getStudentUSNs",
      "outputs": [
        {
          "internalType": "uint256[]",
          "name": "",
          "type": "uint256[]"
        }
      ],
      "stateMutability": "view",
      "type": "function"
    },
    {
      "inputs": [],
      "name": "owner",
      "outputs": [
        {
          "internalType": "address",
          "name": "",
          "type": "address"
        }
      ],
      "stateMutability": "view",
      "type": "function"
    },
    {
      "inputs": [
        {
          "internalType": "uint256",
          "name": "",
          "type": "uint256"
        },
        {
          "internalType": "string",
          "name": "",
          "type": "string"
        }
      ],
      "name": "studentAttendance",
      "outputs": [
        {
          "internalType": "uint256",
          "name": "",
          "type": "uint256"
        }
      ],
      "stateMutability": "view",
      "type": "function"
    },
    {
      "inputs": [
        {
          "internalType": "uint256",
          "name": "",
          "type": "uint256"
        },
        {
          "internalType": "string",
          "name": "",
          "type": "string"
        }
      ],
      "name": "studentGrades",
      "outputs": [
        {
          "internalType": "uint256",
          "name": "",
          "type": "uint256"
        }
      ],
      "stateMutability": "view",
      "type": "function"
    },
    {
      "inputs": [
        {
          "internalType": "uint256",
          "name": "",
          "type": "uint256"
        }
      ],
      "name": "studentUSNs",
      "outputs": [
        {
          "internalType": "uint256",
          "name": "",
          "type": "uint256"
        }
      ],
      "stateMutability": "view",
      "type": "function"
    },
    {
      "inputs": [
        {
          "internalType": "uint256",
          "name": "",
          "type": "uint256"
        }
      ],
      "name": "students",
      "outputs": [
        {
          "internalType": "uint256",
          "name": "usn",
          "type": "uint256"
        },
        {
          "internalType": "string",
          "name": "name",
          "type": "string"
        },
        {
          "internalType": "string",
          "name": "minor",
          "type": "string"
        }
      ],
      "stateMutability": "view",
      "type": "function"
    },
    {
      "inputs": [
        {
          "internalType": "uint256",
          "name": "_usn",
          "type": "uint256"
        },
        {
          "internalType": "string",
          "name": "_course",
          "type": "string"
        },
        {
          "internalType": "uint256",
          "name": "_attendance",
          "type": "uint256"
        }
      ],
      "name": "updateAttendance",
      "outputs": [],
      "stateMutability": "nonpayable",
      "type": "function"
    },
    {
      "inputs": [
        {
          "internalType": "uint256",
          "name": "_usn",
          "type": "uint256"
        },
        {
          "internalType": "string",
          "name": "_course",
          "type": "string"
        },
        {
          "internalType": "uint256",
          "name": "_grade",
          "type": "uint256"
        }
      ],
      "name": "updateGrade",
      "outputs": [],
      "stateMutability": "nonpayable",
      "type": "function"
    }
  ],
  "bytecode": "0x608060405234801561001057600080fd5b50336000806101000a81548173ffffffffffffffffffffffffffffffffffffffff021916908373ffffffffffffffffffffffffffffffffffffffff16021790555060018081905550611cb2806100676000396000f3fe6080604052600436106100c25760003560e01c806365a81d7d1161007f5780638da5cb5b116100595780638da5cb5b14610281578063ee1240a6146102ac578063f975ef19146102e9578063fbd4849f14610326576100c2565b806365a81d7d146101dc57806371138c3714610219578063773144d814610244576100c2565b806306ead22e146100c7578063171d0c971461010657806341712d0014610131578063473e99141461015a57806350fad8001461017657806361dfbaaf146101b3575b600080fd5b3480156100d357600080fd5b506100ee60048036038101906100e9919061119e565b610363565b6040516100fd939291906119f6565b60405180910390f35b34801561011257600080fd5b5061011b61049d565b60405161012891906119db565b60405180910390f35b34801561013d57600080fd5b506101586004803603810190610153919061129a565b6104a3565b005b610174600480360381019061016f919061121b565b610685565b005b34801561018257600080fd5b5061019d600480360381019061019891906111c7565b610940565b6040516101aa91906119db565b60405180910390f35b3480156101bf57600080fd5b506101da60048036038101906101d5919061129a565b6109d3565b005b3480156101e857600080fd5b5061020360048036038101906101fe919061119e565b610bb5565b60405161021091906119b9565b60405180910390f35b34801561022557600080fd5b5061022e610de9565b60405161023b9190611825565b60405180910390f35b34801561025057600080fd5b5061026b600480360381019061026691906111c7565b610e41565b60405161027891906119db565b60405180910390f35b34801561028d57600080fd5b50610296610e7c565b6040516102a3919061180a565b60405180910390f35b3480156102b857600080fd5b506102d360048036038101906102ce91906111c7565b610ea0565b6040516102e091906119db565b60405180910390f35b3480156102f557600080fd5b50610310600480360381019061030b91906111c7565b610edb565b60405161031d91906119db565b60405180910390f35b34801561033257600080fd5b5061034d6004803603810190610348919061119e565b610f6e565b60405161035a91906119db565b60405180910390f35b600260205280600052604060002060009150905080600001549080600101805461038c90611bc4565b80601f01602080910402602001604051908101604052809291908181526020018280546103b890611bc4565b80156104055780601f106103da57610100808354040283529160200191610405565b820191906000526020600020905b8154815290600101906020018083116103e857829003601f168201915b50505050509080600201805461041a90611bc4565b80601f016020809104026020016040519081016040528092919081815260200182805461044690611bc4565b80156104935780601f1061046857610100808354040283529160200191610493565b820191906000526020600020905b81548152906001019060200180831161047657829003601f168201915b5050505050905083565b60015481565b60008054906101000a900473ffffffffffffffffffffffffffffffffffffffff1673ffffffffffffffffffffffffffffffffffffffff163373ffffffffffffffffffffffffffffffffffffffff1614610531576040517f08c379a0000000000000000000000000000000000000000000000000000000008152600401610528906118b9565b60405180910390fd5b60006002600085815260200190815260200160002060000154141561058b576040517f08c379a000000000000000000000000000000000000000000000000000000000815260040161058290611939565b60405180910390fd5b60648111156105cf576040517f08c379a00000000000000000000000000000000000000000000000000000000081526004016105c6906118d9565b60405180910390fd5b60008111610612576040517f08c379a0000000000000000000000000000000000000000000000000000000008152600401610609906118f9565b60405180910390fd5b80600360008581526020019081526020016000208360405161063491906117f3565b908152602001604051809103902081905550827ff278f9bd4ec8ff0a2ee5ea0e9902e03658c331e0a584ad31fe3d9b2fb6a7c1c38383604051610678929190611869565b60405180910390a2505050565b6001543410156106ca576040517f08c379a00000000000000000000000000000000000000000000000000000000081526004016106c190611919565b60405180910390fd5b600083141561070e576040517f08c379a000000000000000000000000000000000000000000000000000000000815260040161070590611999565b60405180910390fd5b6000600260008581526020019081526020016000206000015414610767576040517f08c379a000000000000000000000000000000000000000000000000000000000815260040161075e90611959565b60405180910390fd5b60008054906101000a900473ffffffffffffffffffffffffffffffffffffffff1673ffffffffffffffffffffffffffffffffffffffff166108fc349081150290604051600060405180830381858888f193505050501580156107cd573d6000803e3d6000fd5b506040518060800160405280848152602001838152602001828152602001600067ffffffffffffffff81111561082c577f4e487b7100000000000000000000000000000000000000000000000000000000600052604160045260246000fd5b60405190808252806020026020018201604052801561085f57816020015b606081526020019060019003908161084a5790505b508152506002600085815260200190815260200160002060008201518160000155602082015181600101908051906020019061089c929190610f92565b5060408201518160020190805190602001906108b9929190610f92565b5060608201518160030190805190602001906108d6929190611018565b509050506005839080600181540180825580915050600190039060005260206000200160009091909190915055827f9682c9a3e9734a1f8d3a641838a5d7862f4eb29fcbf4bd04e0ccac28ffcfd227836040516109339190611847565b60405180910390a2505050565b6000806002600085815260200190815260200160002060000154141561099b576040517f08c379a000000000000000000000000000000000000000000000000000000000815260040161099290611939565b60405180910390fd5b60046000848152602001908152602001600020826040516109bc91906117f3565b908152602001604051809103902054905092915050565b60008054906101000a900473ffffffffffffffffffffffffffffffffffffffff1673ffffffffffffffffffffffffffffffffffffffff163373ffffffffffffffffffffffffffffffffffffffff1614610a61576040517f08c379a0000000000000000000000000000000000000000000000000000000008152600401610a58906118b9565b60405180910390fd5b600060026000858152602001908152602001600020600001541415610abb576040517f08c379a0000000000000000000000000000000000000000000000000000000008152600401610ab290611939565b60405180910390fd5b600a811115610aff576040517f08c379a0000000000000000000000000000000000000000000000000000000008152600401610af690611899565b60405180910390fd5b60008111610b42576040517f08c379a0000000000000000000000000000000000000000000000000000000008152600401610b3990611979565b60405180910390fd5b806004600085815260200190815260200160002083604051610b6491906117f3565b908152602001604051809103902081905550827f4789cecbe7acfc331c4399d65a0e7bbe1da27160fb7bd19cd43874ae76fe34078383604051610ba8929190611869565b60405180910390a2505050565b610bbd611078565b6002600083815260200190815260200160002060405180608001604052908160008201548152602001600182018054610bf590611bc4565b80601f0160208091040260200160405190810160405280929190818152602001828054610c2190611bc4565b8015610c6e5780601f10610c4357610100808354040283529160200191610c6e565b820191906000526020600020905b815481529060010190602001808311610c5157829003601f168201915b50505050508152602001600282018054610c8790611bc4565b80601f0160208091040260200160405190810160405280929190818152602001828054610cb390611bc4565b8015610d005780601f10610cd557610100808354040283529160200191610d00565b820191906000526020600020905b815481529060010190602001808311610ce357829003601f168201915b5050505050815260200160038201805480602002602001604051908101604052809291908181526020016000905b82821015610dda578382906000526020600020018054610d4d90611bc4565b80601f0160208091040260200160405190810160405280929190818152602001828054610d7990611bc4565b8015610dc65780601f10610d9b57610100808354040283529160200191610dc6565b820191906000526020600020905b815481529060010190602001808311610da957829003601f168201915b505050505081526020019060010190610d2e565b50505050815250509050919050565b60606005805480602002602001604051908101604052809291908181526020018280548015610e3757602002820191906000526020600020905b815481526020019060010190808311610e23575b5050505050905090565b600360205281600052604060002081805160208101820180518482526020830160208501208183528095505050505050600091509150505481565b60008054906101000a900473ffffffffffffffffffffffffffffffffffffffff1681565b600460205281600052604060002081805160208101820180518482526020830160208501208183528095505050505050600091509150505481565b60008060026000858152602001908152602001600020600001541415610f36576040517f08c379a0000000000000000000000000000000000000000000000000000000008152600401610f2d90611939565b60405180910390fd5b6003600084815260200190815260200160002082604051610f5791906117f3565b908152602001604051809103902054905092915050565b60058181548110610f7e57600080fd5b906000526020600020016000915090505481565b828054610f9e90611bc4565b90600052602060002090601f016020900481019282610fc05760008555611007565b82601f10610fd957805160ff1916838001178555611007565b82800160010185558215611007579182015b82811115611006578251825591602001919060010190610feb565b5b50905061101491906110a0565b5090565b828054828255906000526020600020908101928215611067579160200282015b82811115611066578251829080519060200190611056929190610f92565b5091602001919060010190611038565b5b50905061107491906110bd565b5090565b6040518060800160405280600081526020016060815260200160608152602001606081525090565b5b808211156110b95760008160009055506001016110a1565b5090565b5b808211156110dd57600081816110d491906110e1565b506001016110be565b5090565b5080546110ed90611bc4565b6000825580601f106110ff575061111e565b601f01602090049060005260206000209081019061111d91906110a0565b5b50565b600061113461112f84611a6c565b611a3b565b90508281526020810184848401111561114c57600080fd5b611157848285611b82565b509392505050565b600082601f83011261117057600080fd5b8135611180848260208601611121565b91505092915050565b60008135905061119881611c65565b92915050565b6000602082840312156111b057600080fd5b60006111be84828501611189565b91505092915050565b600080604083850312156111da57600080fd5b60006111e885828601611189565b925050602083013567ffffffffffffffff81111561120557600080fd5b6112118582860161115f565b9150509250929050565b60008060006060848603121561123057600080fd5b600061123e86828701611189565b935050602084013567ffffffffffffffff81111561125b57600080fd5b6112678682870161115f565b925050604084013567ffffffffffffffff81111561128457600080fd5b6112908682870161115f565b9150509250925092565b6000806000606084860312156112af57600080fd5b60006112bd86828701611189565b935050602084013567ffffffffffffffff8111156112da57600080fd5b6112e68682870161115f565b92505060406112f786828701611189565b9150509250925092565b600061130d838361140f565b905092915050565b600061132183836117d5565b60208301905092915050565b61133681611b46565b82525050565b600061134782611abc565b6113518185611af7565b93508360208202850161136385611a9c565b8060005b8581101561139f57848403895281516113808582611301565b945061138b83611add565b925060208a01995050600181019050611367565b50829750879550505050505092915050565b60006113bc82611ac7565b6113c68185611b08565b93506113d183611aac565b8060005b838110156114025781516113e98882611315565b97506113f483611aea565b9250506001810190506113d5565b5085935050505092915050565b600061141a82611ad2565b6114248185611b19565b9350611434818560208601611b91565b61143d81611c54565b840191505092915050565b600061145382611ad2565b61145d8185611b2a565b935061146d818560208601611b91565b61147681611c54565b840191505092915050565b600061148c82611ad2565b6114968185611b3b565b93506114a6818560208601611b91565b80840191505092915050565b60006114bf601783611b2a565b91507f47726164652063616e6e6f74206578636565642031302e0000000000000000006000830152602082019050919050565b60006114ff602a83611b2a565b91507f4f6e6c7920746865206f776e65722063616e20706572666f726d20746869732060008301527f6f7065726174696f6e2e000000000000000000000000000000000000000000006020830152604082019050919050565b6000611565601d83611b2a565b91507f417474656e64616e63652063616e6e6f7420657863656564203130302e0000006000830152602082019050919050565b60006115a5601e83611b2a565b91507f417474656e64616e63652063616e6e6f74206265206e656761746976652e00006000830152602082019050919050565b60006115e5601b83611b2a565b91507f496e73756666696369656e742061646d697373696f6e206665652e00000000006000830152602082019050919050565b6000611625602583611b2a565b91507f53747564656e74207769746820746869732055534e20646f6573206e6f74206560008301527f786973742e0000000000000000000000000000000000000000000000000000006020830152604082019050919050565b600061168b602583611b2a565b91507f53747564656e74207769746820746869732055534e20616c726561647920657860008301527f697374732e0000000000000000000000000000000000000000000000000000006020830152604082019050919050565b60006116f1601983611b2a565b91507f47726164652063616e6e6f74206265206e656761746976652e000000000000006000830152602082019050919050565b6000611731601383611b2a565b91507f55534e2063616e6e6f74206265207a65726f2e000000000000000000000000006000830152602082019050919050565b600060808301600083015161177c60008601826117d5565b5060208301518482036020860152611794828261140f565b915050604083015184820360408601526117ae828261140f565b915050606083015184820360608601526117c8828261133c565b9150508091505092915050565b6117de81611b78565b82525050565b6117ed81611b78565b82525050565b60006117ff8284611481565b915081905092915050565b600060208201905061181f600083018461132d565b92915050565b6000602082019050818103600083015261183f81846113b1565b905092915050565b600060208201905081810360008301526118618184611448565b905092915050565b600060408201905081810360008301526118838185611448565b905061189260208301846117e4565b9392505050565b600060208201905081810360008301526118b2816114b2565b9050919050565b600060208201905081810360008301526118d2816114f2565b9050919050565b600060208201905081810360008301526118f281611558565b9050919050565b6000602082019050818103600083015261191281611598565b9050919050565b60006020820190508181036000830152611932816115d8565b9050919050565b6000602082019050818103600083015261195281611618565b9050919050565b600060208201905081810360008301526119728161167e565b9050919050565b60006020820190508181036000830152611992816116e4565b9050919050565b600060208201905081810360008301526119b281611724565b9050919050565b600060208201905081810360008301526119d38184611764565b905092915050565b60006020820190506119f060008301846117e4565b92915050565b6000606082019050611a0b60008301866117e4565b8181036020830152611a1d8185611448565b90508181036040830152611a318184611448565b9050949350505050565b6000604051905081810181811067ffffffffffffffff82111715611a6257611a61611c25565b5b8060405250919050565b600067ffffffffffffffff821115611a8757611a86611c25565b5b601f19601f8301169050602081019050919050565b6000819050602082019050919050565b6000819050602082019050919050565b600081519050919050565b600081519050919050565b600081519050919050565b6000602082019050919050565b6000602082019050919050565b600082825260208201905092915050565b600082825260208201905092915050565b600082825260208201905092915050565b600082825260208201905092915050565b600081905092915050565b6000611b5182611b58565b9050919050565b600073ffffffffffffffffffffffffffffffffffffffff82169050919050565b6000819050919050565b82818337600083830152505050565b60005b83811015611baf578082015181840152602081019050611b94565b83811115611bbe576000848401525b50505050565b60006002820490506001821680611bdc57607f821691505b60208210811415611bf057611bef611bf6565b5b50919050565b7f4e487b7100000000000000000000000000000000000000000000000000000000600052602260045260246000fd5b7f4e487b7100000000000000000000000000000000000000000000000000000000600052604160045260246000fd5b6000601f19601f8301169050919050565b611c6e81611b78565b8114611c7957600080fd5b5056fea26469706673582212206e60b18c7d3bf86f7f460dd532c26771dcc3f39950ff01659d1263c5653b40ca64736f6c63430008000033",
  "linkReferences": {},
  "deployedLinkReferences": {}
}